:0400000087EF07F08F
:100F0E000001AAEF07F0000E056E000E046E9AEFB8
:100F1E0007F0210E036E760EE82EFED7032EFCD7B9
:100F2E0000D0044A052A0150045C0550800A036E65
:100F3E000250800A0358D8A0A7EF07F0A9EF07F0D8
:100F4E0090EF07F01200CF0E926EC00E936ED80E79
:100F5E00946ECB68070ECA6E0C0EBD6E0C0EBA6E7A
:100F6E000D0EC16E820EC06E640EBE6E640EBB6E32
:100F7E00000E8A6E82508250000E0C6E010E0B6EA9
:100F8E00000E086E010E076E825082B0D1EF07F090
:100F9E00D5EF07F0066A062AD6EF07F0066A065066
:100FAE00096E0A6A8A908A828998898A09040A10C7
:100FBE00D8A4E4EF07F0E6EF07F0E8EF07F00B4AEE
:100FCE000C2A050E0B180C10D8A4F0EF07F0F2EF58
:100FDE0007F0CBEF07F08A908A928998899A000ED3
:100FEE00026E640E016E8AEC07F0CBEF07F000EF95
:020FFE0000F001
:020000040020DA
:08000000FFFFFFFFFFFFFFFF00
:020000040030CA
:0E000000FF021E1EFF8381FF03C003E00340CA
:00000001FF
